{
  "contractName": "Courses",
  "abi": [
    {
      "constant": false,
      "inputs": [
        {
          "name": "_fName",
          "type": "string"
        },
        {
          "name": "_age",
          "type": "uint256"
        }
      ],
      "name": "setInstructor",
      "outputs": [],
      "payable": false,
      "stateMutability": "nonpayable",
      "type": "function"
    },
    {
      "constant": false,
      "inputs": [],
      "name": "getInstructor",
      "outputs": [
        {
          "name": "",
          "type": "string"
        },
        {
          "name": "",
          "type": "uint256"
        }
      ],
      "payable": false,
      "stateMutability": "nonpayable",
      "type": "function"
    }
  ],
  "bytecode": "0x608060405234801561001057600080fd5b50610329806100206000396000f3fe608060405234801561001057600080fd5b50600436106100365760003560e01c806322faf03a1461003b5780633c1b81a514610100575b600080fd5b6100fe6004803603604081101561005157600080fd5b810190808035906020019064010000000081111561006e57600080fd5b82018360208201111561008057600080fd5b803590602001918460018302840111640100000000831117156100a257600080fd5b91908080601f016020809104026020016040519081016040528093929190818152602001838380828437600081840152601f19601f8201169050808301925050505050505091929192908035906020019092919050505061018a565b005b6101086101ac565b6040518080602001838152602001828103825284818151815260200191508051906020019080838360005b8381101561014e578082015181840152602081019050610133565b50505050905090810190601f16801561017b5780820380516001836020036101000a031916815260200191505b50935050505060405180910390f35b81600090805190602001906101a0929190610258565b50806001819055505050565b6060600080600154818054600181600116156101000203166002900480601f0160208091040260200160405190810160405280929190818152602001828054600181600116156101000203166002900480156102495780601f1061021e57610100808354040283529160200191610249565b820191906000526020600020905b81548152906001019060200180831161022c57829003601f168201915b50505050509150915091509091565b828054600181600116156101000203166002900490600052602060002090601f016020900481019282601f1061029957805160ff19168380011785556102c7565b828001600101855582156102c7579182015b828111156102c65782518255916020019190600101906102ab565b5b5090506102d491906102d8565b5090565b6102fa91905b808211156102f65760008160009055506001016102de565b5090565b9056fea165627a7a723058205e2293368807dffd60e1b7f9573bb5984d846c10fee4e9f9a98334e931e70dfb0029",
  "source": "pragma solidity >=0.4.22 <0.6.0;\r\ncontract Courses {\r\n \r\n string fName;\r\n uint age;\r\n \r\n function setInstructor(string memory _fName, uint _age) public {\r\n   fName = _fName;\r\n   age = _age;\r\n }\r\n \r\n function getInstructor() public returns (string memory, uint) {\r\n   return (fName, age);\r\n }\r\n \r\n}",
  "sourcePath": "C:/Users/mythr/xd/net/contracts/courses.sol",
  "compiler": {
    "name": "solc",
    "version": "0.5.8+commit.23d335f2.Emscripten.clang"
  },
  "schemaVersion": "3.0.10",
  "updatedAt": "2019-06-21T12:21:32.811Z",
  "devdoc": {
    "methods": {}
  },
  "userdoc": {
    "methods": {}
  }
}